:10000000A0EB002021520000B3CF0000F55100000A
:10001000F5510000F5510000F5510000000000000E
:10002000000000000000000000000000C14A0000C5
:10003000F5510000000000006D4A0000F55100007D
:10004000714B0000714B0000714B0000714B0000C0
:10005000714B0000714B0000714B0000714B0000B0
:10006000714B0000714B0000714B0000714B0000A0
:10007000714B0000714B0000714B0000714B000090
:10008000714B0000714B0000714B0000714B000080
:10009000714B0000714B0000714B0000714B000070
:1000A000714B0000714B0000714B0000714B000060
:1000B000714B0000714B0000714B0000714B000050
:1000C000714B0000714B0000714B0000714B000040
:1000D000714B0000714B0000714B0000714B000030
:1000E000714B0000714B0000714B0000714B000020
:1000F000714B0000714B0000714B0000714B000010
:1001000001F0FF01102A2BDB10F0070F08D010F8C8
:10011000013B013A8B422DD010F0070F42B3F6D1CC
:10012000F0B441EA012141EA014122F007047FF0E5
:1001300000070023F0E80256083C85EA010586EA3C
:10014000010685FA47F5A3FA87F586FA47F6A5FA78
:1001500087F68EB9EED1F0BC01F0FF0102F0070284
:1001600032B110F8013B013A83EA010313B1F8D12F
:100170000020704701387047002D06BF3546033810
:10018000073815F0010F07D1013015F4807F02BF49
:10019000013015F4C03F0130F0BC0138704700BF9A
:1001A00081F0004102E000BF83F0004330B54FEA28
:1001B00041044FEA430594EA050F08BF90EA020F95
:1001C0001FBF54EA000C55EA020C7FEA645C7FEA28
:1001D000655C00F0E2804FEA5454D4EB5555B8BF4B
:1001E0006D420CDD2C4480EA020281EA030382EABC
:1001F000000083EA010180EA020281EA0303362D4E
:1002000088BF30BD11F0004F4FEA01314FF4801C20
:100210004CEA113102D0404261EB410113F0004F32
:100220004FEA03334CEA133302D0524263EB4303E9
:1002300094EA050F00F0A780A4F10104D5F1200E87
:100240000DDB02FA0EFC22FA05F2801841F10001E2
:1002500003FA0EF2801843FA05F359410EE0A5F1B6
:1002600020050EF1200E012A03FA0EFC28BF4CF0E7
:10027000020C43FA05F3C01851EBE37101F000459D
:1002800007D54FF0000EDCF1000C7EEB00006EEBAA
:100290000101B1F5801F1BD3B1F5001F0CD3490834
:1002A0005FEA30004FEA3C0C04F101044FEA44528B
:1002B00012F5800F80F09A80BCF1004F08BF5FEA12
:1002C000500C50F1000041EB045141EA050130BDF2
:1002D0005FEA4C0C404141EB0101013C28BFB1F504
:1002E000801FE9D291F0000F04BF01460020B1FA4F
:1002F00081F308BF2033A3F10B03B3F120020CDA22
:100300000C3208DD02F1140CC2F10C0201FA0CF0FF
:1003100021FA02F10CE002F11402D8BFC2F1200C64
:1003200001FA02F120FA0CFCDCBF41EA0C0190401A
:10033000E41AA2BF01EB0451294330BD6FEA040463
:100340001F3C1CDA0C340EDC04F11404C4F120024E
:1003500020FA04F001FA02F340EA030021FA04F360
:1003600045EA030130BDC4F10C04C4F1200220FAB7
:1003700002F001FA04F340EA0300294630BD21FAF5
:1003800004F0294630BD94F0000F83F4801306BFBB
:1003900081F480110134013D4EE77FEA645C18BFAF
:1003A0007FEA655C29D094EA050F08BF90EA020F46
:1003B00005D054EA000C04BF1946104630BD91EA3E
:1003C000030F1EBF0021002030BD5FEA545C05D141
:1003D0004000494128BF41F0004130BD14F5800480
:1003E0003CBF01F5801130BD01F0004545F0FE41F4
:1003F00041F470014FF0000030BD7FEA645C1ABF29
:10040000194610467FEA655C1CBF0B46024650EA5F
:10041000013406BF52EA033591EA030F41F400218B
:1004200030BD00BF90F0000F04BF0021704730B511
:100430004FF4806404F132044FF000054FF00001E6
:1004400050E700BF90F0000F04BF0021704730B5A7
:100450004FF4806404F1320410F0004548BF40427C
:100460004FF000013EE700BF42004FEAE2014FEAD1
:1004700031014FEA02701FBF12F07F4393F07F4FAC
:1004800081F06051704732F07F4208BF704793F0AF
:100490007F4F04BF41F40021704730B54FF46074C2
:1004A00001F0004521F000411CE700BF50EA0102C5
:1004B00008BF704730B54FF000050AE050EA01026E
:1004C00008BF704730B511F0004502D5404261EBDE
:1004D00041014FF4806404F132045FEA915C3FF41F
:1004E000D8AE4FF003025FEADC0C18BF03325FEABC
:1004F000DC0C18BF033202EBDC02C2F1200300FA6D
:1005000003FC20FA02F001FA03FE40EA0E0021FA91
:1005100002F11444BDE600BF70B54FF0FF0C4CF47F
:10052000E06C1CEA11541DBF1CEA135594EA0C0F31
:1005300095EA0C0F00F0DEF82C4481EA030621EA6C
:100540004C5123EA4C5350EA013518BF52EA0335A7
:1005500041F4801143F4801338D0A0FB02CE4FF059
:100560000005E1FB02E506F00042E0FB03E54FF089
:100570000006E1FB03569CF0000F18BF4EF0010E81
:10058000A4F1FF04B6F5007F64F5407404D25FEA7D
:100590004E0E6D4146EB060642EAC62141EA555130
:1005A0004FEAC52040EA5E504FEACE2EB4F1FD0C72
:1005B00088BFBCF5E06F1ED8BEF1004F08BF5FEAF0
:1005C000500E50F1000041EB045170BD06F00046A2
:1005D00046EA010140EA020081EA0301B4EB5C044F
:1005E000C2BFD4EB0C0541EA045170BD41F4801147
:1005F0004FF0000E013C00F3AB8014F1360FDEBF6C
:10060000002001F0004170BDC4F10004203C35DA47
:100610000C341BDC04F11404C4F1200500FA05F3CA
:1006200020FA04F001FA05F240EA020001F000426B
:1006300021F0004110EBD37021FA04F642EB0601E1
:100640005EEA430E08BF20EAD37070BDC4F10C040B
:10065000C4F1200500FA04F320FA05F001FA04F2CF
:1006600040EA020001F0004110EBD37041F10001BB
:100670005EEA430E08BF20EAD37070BDC4F12005C6
:1006800000FA05F24EEA020E20FA04F301FA05F22E
:1006900043EA020321FA04F001F0004121FA04F2D6
:1006A00020EA020000EBD3705EEA430E08BF20EAA6
:1006B000D37070BD94F0000F0FD101F000464000E0
:1006C00041EB010111F4801F08BF013CF7D041EA62
:1006D000060195F0000F18BF704703F00046520066
:1006E00043EB030313F4801F08BF013DF7D043EA37
:1006F0000603704794EA0C0F0CEA135518BF95EAED
:100700000C0F0CD050EA410618BF52EA4306D1D173
:1007100081EA030101F000414FF0000070BD50EA92
:10072000410606BF1046194652EA430619D094EA1C
:100730000C0F02D150EA013613D195EA0C0F05D106
:1007400052EA03361CBF104619460AD181EA03015A
:1007500001F0004141F0FE4141F470014FF0000012
:1007600070BD41F0FE4141F4780170BD70B54FF0AD
:10077000FF0C4CF4E06C1CEA11541DBF1CEA13552D
:1007800094EA0C0F95EA0C0F00F0A7F8A4EB05040F
:1007900081EA030E52EA03354FEA013100F0888006
:1007A0004FEA03334FF0805545EA131343EA1263CF
:1007B0004FEA022245EA111545EA10654FEA002684
:1007C0000EF000419D4208BF964244F1FD0404F53D
:1007D000407402D25B084FEA3202B61A65EB030599
:1007E0005B084FEA32024FF480104FF4002CB6EB56
:1007F000020E75EB030E22BFB61A754640EA0C00D6
:100800005B084FEA3202B6EB020E75EB030E22BF15
:10081000B61A754640EA5C005B084FEA3202B6EB56
:10082000020E75EB030E22BFB61A754640EA9C0015
:100830005B084FEA3202B6EB020E75EB030E22BFE5
:10084000B61A754640EADC0055EA060E18D04FEAA3
:10085000051545EA16754FEA06164FEAC30343EA43
:1008600052734FEAC2025FEA1C1CC0D111F4801F10
:100870000BD141EA00014FF000004FF0004CB6E709
:1008800011F4801F04BF01430020B4F1FD0C88BFA8
:10089000BCF5E06F3FF6AFAEB5EB030C04BFB6EBB3
:1008A000020C5FEA500C50F1000041EB045170BDA6
:1008B0000EF0004E4EEA113114EB5C04C2BFD4EBD3
:1008C0000C0541EA045170BD41F480114FF0000E57
:1008D000013C90E645EA060E8DE60CEA135594EAD3
:1008E0000C0F08BF95EA0C0F3FF43BAF94EA0C0FD6
:1008F0000AD150EA01347FF434AF95EA0C0F7FF44B
:1009000025AF104619462CE795EA0C0F06D152EA9E
:1009100003353FF4FDAE1046194622E750EA410682
:1009200018BF52EA43067FF4C5AE50EA41047FF493
:100930000DAF52EA43057FF4EBAE12E74FEA4102F6
:10094000B2F1E04324BFB3F5001CDCF1FE5C0DD92D
:1009500001F0004C4FEAC0024CEA5070B2F1004F77
:1009600040EB830008BF20F00100704711F0804F7A
:1009700021D113F13872BCBF01F00040704741F43F
:1009800080114FEA5252C2F11802C2F1200C10FA43
:100990000CF320FA02F018BF40F001004FEAC12327
:1009A0004FEAD32303FA0CFC40EA0C0023FA02F3CB
:1009B0004FEA4303CCE77FEA625307D150EA0133A1
:1009C0001EBF4FF0FE4040F44000704701F0004071
:1009D00040F0FE4040F40000704700BF4FF0FF3C85
:1009E00006E000BF4FF0010C02E000BF4FF0010C29
:1009F0004DF804CD4FEA40024FEA41037FEA226CF2
:100A000018BF7FEA236C11D001B052EA530C18BF13
:100A100090EA010F58BFB2EB030088BFC81738BF78
:100A20006FEAE17018BF40F0010070477FEA226C66
:100A300002D15FEA402C05D17FEA236CE4D15FEA62
:100A4000412CE1D05DF8040B704700BF8446084696
:100A50006146FFE70FB5FFF7C9FF002848BF10F157
:100A6000000F0FBD4DF808EDFFF7F4FF0CBF01209C
:100A700000205DF808FB00BF4DF808EDFFF7EAFF26
:100A800034BF012000205DF808FB00BF4DF808EDE1
:100A9000FFF7E0FF94BF012000205DF808FB00BFD6
:100AA0004DF808EDFFF7D2FF94BF012000205DF85C
:100AB00008FB00BF4DF808EDFFF7C8FF34BF012069
:100AC00000205DF808FB00BF53B94AB9002908BFF0
:100AD00000281CBF4FF0FF314FF0FF3000F00CB882
:100AE000ADF1080C6DE904CE00F0CEF8DDF804E0BD
:100AF000DDE9022304B07047704700BF4FF0FF3CB0
:100B000006E000BF4FF0010C02E000BF4FF0010C07
:100B10004DF804CD4FEA410C7FEA6C5C4FEA430C80
:100B200018BF7FEA6C5C1BD001B050EA410C0CBFCF
:100B300052EA430C91EA030F02BF90EA020F002031
:100B4000704710F1000F91EA030F58BF994208BF98
:100B500090422CBFD8176FEAE37040F00100704755
:100B60004FEA410C7FEA6C5C02D150EA013C07D1AC
:100B70004FEA430C7FEA6C5CD6D152EA033CD3D0F7
:100B80005DF8040B704700BF8446104662468C46F1
:100B90001946634600E000BF01B5FFF7B7FF002824
:100BA00048BF10F1000F01BD4DF808EDFFF7F4FF4D
:100BB0000CBF012000205DF808FB00BF4DF808EDD8
:100BC000FFF7EAFF34BF012000205DF808FB00BFFB
:100BD0004DF808EDFFF7E0FF94BF012000205DF81D
:100BE00008FB00BF4DF808EDFFF7CEFF94BF0120D2
:100BF00000205DF808FB00BF4DF808EDFFF7C4FFCB
:100C000034BF012000205DF808FB00BF4FEA410C13
:100C10007FEA6C5C02D150EA013C0AD14FEA430CF6
:100C20007FEA6C5C02D152EA033C02D14FF0000033
:100C300070474FF0010070474FEA410212F5001271
:100C400015D211D56FF47873B3EB625212D94FEA13
:100C5000C12343F0004343EA505311F0004F23FAFD
:100C600002F018BF404270474FF00000704750EA52
:100C7000013005D111F0004008BF6FF0004070470F
:100C80004FF00000704700BF2DE9F04F07468C463B
:100C90000846099E15463C461946002B40F0C68082
:100CA0008242B2FA82F746D94FB1C7F1200E24FA38
:100CB0000EFE00FA07F3BD404EEA030CBC404FEABB
:100CC00015481FFA85FEBCFBF8F9220C08FB19C376
:100CD00009FB0EFA42EA03439A4528D9EB1809F1B9
:100CE000FF3004D29A4502D9A9F102002B44A3EBAC
:100CF0000A03A4B2B3FBF8F208FB123302FB0EFEA8
:100D000044EA0344A64514D92C1902F1FF3303D257
:100D1000A64501D9931E2C44A4EB0E0443EA0040DF
:100D20001EB1FC40002334607360BDE8F08F48467C
:100D3000DDE71346F0E702B9FFDE87BB831A012126
:100D40004FEA154EAAB2B3FBFEFC200C0EFB1C337F
:100D50000CFB02F840EA0343984563D9EB180CF109
:100D6000FF3004D2984502D9ACF102002B44A3EB2A
:100D70000803A4B2B3FBFEFC0EFB1C330CFB02F217
:100D800044EA0344A2424FD92C190CF1FF3304D298
:100D9000A24202D9ACF102032C44A41ABEE7C7F167
:100DA000200C20FA0CF800FA07F324FA0CFCBD40E2
:100DB0004CEA03024FEA154EABB2B8FBFEFC110C35
:100DC0000EFB1C800CFB03F941EA0040814504FA4C
:100DD00007F423D928180CF1FF3104D2814502D938
:100DE000ACF102012844A0EB090092B2B0FBFEFC7A
:100DF0000EFB1C000CFB03F842EA004398450FD998
:100E0000EB180CF1FF3204D2984502D9ACF1020282
:100E10002B44A3EB080342EA014191E76146E2E774
:100E20006246F6E76046A2E76346B6E7834205D925
:100E30000EB1C6E900700021084676E7B3FA83F1E7
:100E400081B9834201D3BA420AD8BC1A60EB0303CA
:100E500001209C46002E68D0C6E9004C002164E7C2
:100E60000846F7E7C1F1200C8B4022FA0CF41C4332
:100E700002FA01F500FA01F327FA0CF220FA0CFB52
:100E80004FEA14491343BBFBF9F81FFA84FE09FB30
:100E900018BB1A0C08FB0EFA42EA0B42924507FAFD
:100EA00001F73ED9A21808F1FF3004D2924502D9C9
:100EB000A8F102002244A2EB0A029BB2B2FBF9F8AD
:100EC00009FB182208FB0EFE43EA024296452AD986
:100ED000A21808F1FF3304D2964502D9A8F1020303
:100EE000224443EA0040A0FB0593A2EB0E029A4283
:100EF000CE46984602D306D14F4504D2B9EB050E33
:100F000063EB0408013886B1B7EB0E0362EB080708
:100F100007FA0CFCCB404CEA0303CF40C6E900378C
:100F20009CE74046C7E74346DBE73146FDE610F85D
:100F3000012B11F8013B012A28BF9A42F7D0D01AA1
:100F40007047034613F8012B002AFBD1181A013809
:100F5000704700000000000070B54FF6FF731546A3
:100F600000220B800C461346411E11F8016FFF2E24
:100F700002D13AB9238001220133802BF5D14FF001
:100F8000FF3208E011F8016CFF2EF5D04FF6FE732A
:100F900023806FF00102002100F57E500B4610F80F
:100FA000016BFF2E1AD1B9B110F8026CFF2E15D0CB
:100FB0004FF6FE7323806FF00102B4F900104B1C52
:100FC00001D0561C0ED128480AF07CFA4FF6FF7368
:100FD00023804FF0FF3070BD1A4601210133802B72
:100FE000DDD1EAE7881C01D0931C05D11F480AF027
:100FF00069FA4FF6FE73EBE78A4203D100232B60B8
:101000000020E8E7881AFFF71DFA194B00220CF0C0
:101010002EFDFFF793FC00210646FFF72DFD044649
:10102000304664B1FFF720FA0DA3D3E90023FFF7A0
:10103000BDF8FFF783FC00F100402860E0E7FFF710
:1010400013FA02460B4606A1D1E90001FFF7ACF8FE
:10105000FFF774FC28602046BDE700BFAFF30080B7
:10106000F1D4C853FB21094044EA000071EA0000B2
:1010700000C05FC0000000002DE9F84F924699467D
:1010800023F000421F46CAF10003DFF884E143EA7F
:101090000A0342EAD373734504460D4608D8464214
:1010A00021F00043064343EAD67676458C4608D9BC
:1010B00052464B4620462946FFF778F804460D462F
:1010C00019E009F1404606F5801656EA0A0603D1F2
:1010D000BDE8F84F00F0A4B8BE1706F0020646EAD5
:1010E000D17653EA00010AD1022E67D0032E02D135
:1010F0003BA5D5E9004520462946BDE8F88F52EAD0
:101100000A0106D1BCF1000F63DA37A5D5E9004525
:10111000F1E772450FD1934206F1FF3607D1022E57
:1011200050D83C4B03EBC606D6E90045E3E7022E58
:101130004CD8394BF6E77345E4D09B1AB3F1747F72
:101140004FEA235220DA002F01DA3C3220DB5246EC
:101150004B4620462946FFF709FB0CF08AFC00F0BD
:101160005FF804460D46012E15D0022E17D0002E32
:10117000C1D01FA3D3E9002320462946FFF714F866
:101180001DA3D3E9002316E01DA5D5E90045EAE734
:1011900000240025E7E705F100431D46ABE714A353
:1011A000D3E9002320462946FEF7FEFF02460B4600
:1011B00011A1D1E90001FEF7F7FF7FE70EA5D5E900
:1011C000004598E710A5D5E9004594E700240025DF
:1011D00091E70BA5D5E900458DE700BFAFF300808F
:1011E000182D4454FB2109C0182D4454FB21F9BF8C
:1011F000075C143326A6A13C182D4454FB2109405A
:10120000182D4454FB21F93F182D4454FB21E93F8C
:101210000000F07F48E4000060E4000000000000EF
:101220002DE9F84FB64B21F000469E4204460D468C
:101230008B4617DDB34B9E4201DC09D140B12246FB
:101240002B4620462946FEF7B1FF04460D4605E031
:10125000BBF1000FAC4C00F32181AC4D2046294678
:10126000BDE8F88FAA4B9E4211DCA3F1DE739E42CB
:101270000ADC8BA3D3E90023FEF798FFA54B0022DD
:10128000FFF7BAFC0028E9D14FF0FF3A27E00CF055
:10129000F0FBA14B9E4204460D4600F3B880A3F537
:1012A00050239E4200F39C8002460B46FEF77EFFD1
:1012B000984B0022FEF778FF002206460F464FF0BB
:1012C000804320462946FEF771FF02460B46304612
:1012D0003946FFF74BFA4FF0000A04460D46224606
:1012E0002B4620462946FFF717F902460B46804653
:1012F0008946FFF711F96CA3D3E9002306460F4690
:10130000FFF70AF96AA3D3E90023FEF74FFF32463D
:101310003B46FFF701F968A3D3E90023FEF746FF38
:1013200032463B46FFF7F8F865A3D3E90023FEF702
:101330003DFF32463B46FFF7EFF863A3D3E90023B6
:10134000FEF734FF32463B46FFF7E6F860A3D3E9E9
:101350000023FEF72BFF42464B46FFF7DDF85EA366
:10136000D3E900238046894630463946FFF7D4F852
:101370005BA3D3E90023FEF717FF32463B46FFF796
:10138000CBF859A3D3E90023FEF70EFF32463B46C4
:10139000FFF7C2F856A3D3E90023FEF705FF324654
:1013A0003B46FFF7B9F854A3D3E90023FEF7FCFE50
:1013B00032463B46FFF7B0F802460B4640464946E8
:1013C000FEF7F4FE22462B46FFF7A6F8BAF1FF3FE0
:1013D00002460B4644D120462946FEF7E5FE34E797
:1013E0004C4B0022FEF7E0FE4A4B06460F46002219
:1013F00020462946FEF7DAFE02460B4630463946BD
:10140000FFF7B4F94FF0010A04460D4667E7434B76
:101410009E421ADA424B0022FEF7C6FE404B0646B9
:101420000F46002220462946FFF776F8394B002266
:10143000FEF7BCFE02460B4630463946FFF796F9EA
:101440004FF0020A04460D4649E702460B460020CB
:101450003449FFF78BF94FF0030A04460D463EE787
:10146000314B324E06EBCA0603EBCA0ADAE9002317
:10147000FEF79AFE22462B46FEF796FE02460B46E4
:10148000D6E90001FEF790FEBBF1000F04460D46C1
:10149000BFF6E4AE01F100431D46DFE6244DDDE674
:1014A0009C7500883CE4377E11DA22E33AAD903F28
:1014B000EB0D76244B7BA93F513DD0A0660DB13F8B
:1014C0006E204CC5CD45B73FFF8300922449C23FF3
:1014D0000D5555555555D53F2F6C6A2C44B4A2BFB8
:1014E0009AFDDE522DDEAD3F6D9A74AFF2B0B33F80
:1014F000711623FEC671BC3FC4EB98999999C93FF8
:10150000FFFF0F440000F07F182D4454FB21F9BF6A
:10151000FFFFDB3F0000F03FFFFFF23F0080034092
:101520000000F83F0000F0BF98E4000078E40000FD
:10153000FB21F93F000000002DE9F04F446A99B00B
:1015400016461F46CDE90467DDF89480054674B958
:10155000102009F011FB0246686220B9A84BEA216D
:10156000A8480BF09FF8C0E901440460C4606B6AAE
:10157000196851B15A684A60012393408B6028462C
:101580000AF0CCFB6B6A00221A603B1EB9BF23F045
:10159000004305930023C8F80030DDF814909A4BFF
:1015A000BCBF0122C8F8002033EA090319D1249AEC
:1015B00042F20F731360C9F31303334300F08085C5
:1015C000269B53B9914B22E0914B03930833269A03
:1015D0001360039819B0BDE8F08F8C4B039303336D
:1015E000F5E7DDE90434CDE90C34DDE90C01002236
:1015F0000023FFF7D9FA804658B1249A01231360DB
:10160000269B002B00F0598582481860431E0393E7
:10161000DFE716AB019317AB00932846DDE90C23F7
:101620000AF0F4FDC9F30A548346002C7ED00D9BCA
:10163000CDF84C80C3F31303DDE90C0143F07F5177
:1016400041F44011A4F2FF34734B0022FEF7ACFDCD
:1016500065A3D3E90023FEF75FFF65A3D3E9002369
:10166000FEF7A4FD064620460F46FEF7EBFE62A3FA
:10167000D3E90023FEF750FF02460B4630463946B9
:10168000FEF794FD06460F46FFF7D6FA0022824683
:10169000002330463946FFF791FA48B15046FEF72D
:1016A000D1FE32463B46FFF77FFA08B90AF1FF3A0E
:1016B000BAF1160F57D8594B03EBCA03D3E90023ED
:1016C000DDE90C01FFF77AFA00284ED00AF1FF3A63
:1016D00000230F93169B1C1B631E099345BFC4F187
:1016E00001030693002300234CBF09930693BAF12C
:1016F000000F3CDB099BCDF838A05344099300232D
:101700000A93229B092B00F28D80052BC4BF043B5A
:101710002293229BA3F10203CCBF00240124032BBC
:1017200000F28C80DFE803F02D4F4D5BDDE91643BE
:101730001C4404F23243202BC3BFC3F1400304F224
:10174000124009FA03F3C3F12003C6BF26FA00F0E2
:10175000184306FA03F0FEF765FE0123A1F1F871C4
:10176000013C139370E70123B3E70F90B2E7069BA8
:10177000A3EB0A030693CAF100030A9300230E9316
:10178000BFE700230B93239B002B5ADC4FF001098A
:10179000CDF820904B46CDF88C90686A00224260CC
:1017A000042202F114069E42416850D928460AF0EC
:1017B00075FA039000284ED1194B02464FF4D571AB
:1017C000CEE60123DEE700230B93239B0AEB0309FC
:1017D00009F10103012B0893B8BF0123DDE70123C1
:1017E000F2E700BFAFF3008061436F63A787D23F8A
:1017F000B3C8608B288AC63FFB799F501344D33F00
:101800009B0D0100B20D01000000F07F970D01005B
:101810008E0D0100BEF700000000F83FE0E400007C
:101820000E0E01000124002322930B944FF0FF3988
:101830000022CDF8209012232392AEE701230B93D0
:10184000F4E7DDF88C90CDF820904B46A5E7013108
:1018500041605200A5E76B6A039A1A60089B0E2B41
:1018600000F2A880002C00F0A580BAF1000F34DD52
:101870009A4A0AF00F0302EBC303D3E900341AF4C7
:10188000807FCDE910344FEA2A1416D0944BDDE95D
:101890000C01D3E90823FEF769FFCDE9040104F048
:1018A0000F0403278E4E54B9DDE91023DDE904014E
:1018B000FEF75CFFCDE9040129E00227F2E7E1072A
:1018C00008D5DDE91001D6E90023FEF725FECDE9B4
:1018D0001001013764100836E5E700F0A580CAF171
:1018E00000047E4B7E4E04F00F0203EBC203D3E9EB
:1018F0000023DDE90C01FEF70FFECDE90401241100
:1019000000230227002C40F08480002BD2D10F9BB3
:10191000002B00F08B80DDE90434CDE91034DDE9E3
:101920001001704B0022FFF749F900287ED0089B78
:10193000002B7BD0B9F1000F38DDDDE910016A4BD7
:101940000022FEF7E9FDCDE904010AF1FF38013775
:101950004C463846FEF776FDDDE90423FEF7DCFD54
:10196000624B0022FEF722FCA1F15076CDE9100176
:101970001196002C5DD1DDE904015D4B0022FEF7DC
:1019800013FC02460B46CDE90423109A3346FFF7B9
:1019900033F9002840F09C82DDE90401109A06F139
:1019A0000043FFF70BF9002840F09082DDE90C348A
:1019B000CDE90434179B002BC0F25281BAF10E0F0F
:1019C00000F34E81454B03EBCA03D3E90034CDE964
:1019D0000634239B002B80F2DB80089B002B00F356
:1019E000D78040F07282424B0022DDE90601FEF70B
:1019F00093FDDDE90423FFF7F5F8089C264600284F
:101A000040F04882039F312307F8013B0AF1010AA5
:101A100044E2E20705D5D6E90023FEF77DFD013754
:101A20000123641008366DE7022770E7089CD04652
:101A30008FE70399294B214412910B9903EBC403BF
:101A4000DDE9106753E90223002955D02949002018
:101A5000FEF78CFE3B463246FEF7A6FBCDE91001B1
:101A6000039FDDE90401FFF7E7F80446FEF7EAFC0F
:101A700002460B46DDE90401FEF796FB30340246D0
:101A80000B46CDE9042307F8014BDDE91023FFF7EE
:101A900095F8002874D1DDE9042312490020FEF7EF
:101AA00083FBDDE91023FFF789F8002840F0B780B9
:101AB000129B9F423FF47AAFDDE910010A4B0022EE
:101AC000FEF72AFD084BCDE910010022DDE90401F3
:101AD000FEF722FDCDE90401C3E700BFE0E400000A
:101AE000B8E400000000F03F0000244000001C406B
:101AF000000014400000E03F30463946FEF70CFD80
:101B0000CDE91001129B039C1493DDE90401FFF75A
:101B100093F81590FEF796FC02460B46DDE90401AA
:101B2000FEF742FB159B303304F8013B129B9C42AD
:101B300006460F464FF0000224D1A44BDDE9100108
:101B4000FEF734FB02460B4630463946FFF754F8A1
:101B5000002863D1DDE910239C490020FEF724FB17
:101B600002460B4630463946FFF728F800283FF476
:101B70001DAF149F7B1E149317F8013C302BF8D037
:101B8000C2463BE0924BFEF7C7FCCDE90401BCE73F
:101B9000DDE90489039FDDE9062340464946FEF757
:101BA000E5FDFFF749F80446FEF74CFCDDE90623A6
:101BB000FEF7B2FC04F1300602460B4640464946A9
:101BC000FEF7F2FA07F8016B039EDDF820C0BE1B9A
:101BD000B44502460B4636D1FEF7E8FADDE90623A6
:101BE00080468946FFF708F858BBDDE906234046E2
:101BF0004946FEF7D9FF08B1E10722D428465946E5
:101C00000AF08CF800233B70249B0AF10100186055
:101C1000269B002B3FF4DDAC1F60DAE427463B46F1
:101C20001F4613F8012D392A07D1039A9A42F7D19A
:101C30000399302208F101080A701A7801321A70EB
:101C40009EE7D046EBE7624B0022FEF765FC0022E0
:101C5000002380468946FEF7A7FF00289BD0CDE7EA
:101C60000B9A002A00F0D080229A012A00F3B28059
:101C7000139A002A00F0A68003F233430A9C069FC1
:101C8000069A1A440692099A01211A442846099292
:101C90000AF0ACF80646002F0CDD099B002B09DD8D
:101CA000BB42069AA8BF3B46D21A0692099AFF1A6F
:101CB000D31A09930A9BF3B10B9B002B00F0A88069
:101CC000002C10DD3146224628460AF04DF95A46CE
:101CD0000146064628460AF09FF85946804628469F
:101CE0000AF01CF8C3460A9B1A1B04D05946284622
:101CF0000AF03AF98346012128460AF077F80E9B4C
:101D0000002B044640F386801A46014628460AF016
:101D10002BF9229B012B04467FDD4FF0000823693D
:101D200004EB830318690CF09AF8C0F12000099BBA
:101D3000184410F01F0000F09280C0F12003042B23
:101D400040F38A80C0F11C00069B03440693099B64
:101D5000034407440993069B002B05DD59461A46A8
:101D600028460AF05BF98346099B002B05DD2146D6
:101D70001A4628460AF052F904460F9B002B70D0F1
:101D8000214658460CF0B8F800286ADA0023594674
:101D90000A22284609F0E4FF0B9B0AF1FF3A83462A
:101DA000002B00F09481314600230A22284609F0D6
:101DB000D7FFB9F1000F064600F39380229B022B58
:101DC00057DC8EE0169BC3F1360357E70000E03F77
:101DD00000002440089B5C1E0A9BA342BFBF0A9BD5
:101DE0000A94E21A0E9BB6BF9B181C1B0E93089B0D
:101DF000B8BF0024002BB9BF069B089A069F089B1A
:101E0000BCBF9F1A00233BE70A9C069F0B9E42E73C
:101E10000A9A6BE7229B012B19DC049BBBB9059B3B
:101E2000C3F313039BB9059B23F000431B0D1B0554
:101E300083B1069B01330693099B013309934FF04D
:101E400001080E9B002B7FF46AAF01206FE74FF073
:101E50000008F6E79846F4E73FF47DAF18461C30DB
:101E600072E7089B002B36DC229B022B33DDDDF86A
:101E70002090B9F1000F0DD121464B46052228468E
:101E800009F06EFF0146044658460CF035F800286C
:101E90003FF7B8AD239B039F6FEA030A4FF000089A
:101EA0002146284609F03AFF002E3FF4A7AEB8F1CC
:101EB000000F05D0B04503D04146284609F02EFF5B
:101EC0003146284609F02AFF98E600242646E1E735
:101ED000C246264696E50B9BDDF82090002B00F0CD
:101EE000FD80002F05DD31463A4628460AF096F877
:101EF0000646B8F1000F5CD07168284609F0CEFEA6
:101F0000074628B9804B024640F2EA21FFF728BB7A
:101F100032690232920006F10C010C300BF0ACFD7C
:101F20000122394628460AF079F8039B01330893C9
:101F3000039B4B440A93049B03F00103B0460993AF
:101F40000646089B2146013B584604930BF0CBFE06
:101F5000034630330690414658460B930BF0CCFFB6
:101F600032468146214628460AF0C8F8C2680B9BD3
:101F7000074602BB014658460BF0BEFF0B9B0246CC
:101F800039462846CDE90B3209F0C8FE229B0C9A4F
:101F9000089F43EA0201099B0B430B9B0DD1392B90
:101FA00029D0B9F1000F01DD069B3133049A13707B
:101FB00076E73046B9E70122E2E7B9F1000F06DB28
:101FC000229941EA0909099959EA010120D1002A17
:101FD000ECDD59460122284608930AF01FF82146F5
:101FE00083460BF089FF0028089B02DCDED1DA076C
:101FF000DCD5392BD8D1049A392313703B461F46C0
:10200000013B17F8012C392A50D001321A7047E7EA
:10201000002A03DD392BEED00133C7E7089A0A996D
:1020200002F8013C8A422AD0594600230A22284657
:1020300009F096FEB04583464FF000034FF00A02C8
:102040004146284607D109F08BFE80460646089B8C
:102050000133089375E709F083FE3146804600237B
:102060000A22284609F07CFE0646F0E7B9F1000F87
:10207000039ACCBF4F46012717444FF0000859463A
:1020800001222846089309F0C9FF214683460BF038
:1020900033FF0028B2DC02D1089BDB07AED43B46FD
:1020A0001F4613F8012D302AFAD0F9E6039A9A4216
:1020B000A5D10AF1010A312379E7144BFFF7A7BA3A
:1020C000269B002B7FF480AA114BFFF7A0BAB9F131
:1020D000000F03DC229B022B3FF7CBAE039F214670
:1020E00058460BF000FE00F1300307F8013B039A5D
:1020F000BA1A9145BADD594600230A22284609F04A
:102100002FFE8346EBE700BF0E0E0100BDF7000077
:102110008E0D0100F0B585B003F0C6FB03F0D0FBD7
:10212000194C1A4E1A4D03F037F9CDE90001216818
:1021300030460AF0F4FD296816480AF0F0FD164B07
:102140001868FEF791F90B461449024609781448BD
:1021500009F0B8F903F020F9CDE9020102A96846B7
:102160000AF03EFF0AF045FF0B460E490246D1E950
:1021700000709742984104D20B48C1E900230AF04D
:10218000CEFD0AF046FDCEE798090020E8E8000001
:102190009409002014E9000070090020F452002086
:1021A00037E900009006002060E9000010B50B78C8
:1021B000022B02D0052B0ED010BDD1E902020E4C2D
:1021C0000E49236801440E4818440BF055FC23685F
:1021D00001332360F0E70B4B186883680749DC681C
:1021E0004FF480424FF47A73A0470028E4D04FF0B8
:1021F000FF3008F0ADFC00BFB4090020F55200200C
:10220000F5920020B00900202DE9F04F002689B09A
:10221000002700240223CDE90334CDE90667CDE988
:102220000144594B594900944FF48062584806F0D4
:1022300029FB584B18600523CDE90243CDE9066719
:10224000CDE90044544B554904944FF480625448FE
:1022500006F018FB534B18600423CDE90243CDE987
:102260000667CDE90044504B504904944FF4806216
:102270004F4806F007FB4F4B18600323CDE902439C
:10228000CDE90667CDE900444B4B4C4904944FF42B
:1022900080624B4806F0F6FA4A4B18604A484B4DAC
:1022A00006F012F8286030B94749494809B0BDE83E
:1022B000F04F0AF034BD47480AF031FD28688368C2
:1022C0005B6A2BB9444809B0BDE8F04F0AF027BD5E
:1022D000424998475830F5D0286883681B6833B165
:1022E0003F4922469847014620B13E48DEE76FF05D
:1022F0005701FAE7286883683B49DC684FF480425D
:102300004FF47A73A047014668BBDFF8E090DFF82E
:10231000E0A0384D0AF07DFCD9F80030002BF9DD43
:102320000024354A354BC9F80040013412F8011B2E
:1023300003F8011BB4F5804FF7D1DAF80030DFF86D
:10234000C080304F304E83B92C4B30482246042198
:1023500000F052F901232860CAF80030C8F80030B4
:102360003B603360D6E72A48A0E7286800F0A8F968
:102370002249834622460BF07FFB296858460AF023
:102380007EFC0123EAE700BFB924000020D700202B
:1023900078040020A00900205925000040DB00201F
:1023A000F8040020A40900201524000060DF0020AC
:1023B00078050020A80900201521000080E30020F6
:1023C000F8050020AC09002074E90000B0090020E5
:1023D0007BE90000A7E90000C1E90000A8E50000D2
:1023E000AD210000F1E90000F5520020B409002001
:1023F0009C09002074090020F5920020F4120020AE
:10240000780900207C09002080090020D4EA00001F
:102410001CEA0000F0B585B003F046FA03F050FA6C
:102420001C4C1D4D02F0B8FF2368012BCDE90001C3
:1024300015D12868194F1A4E00F076F9194B3860FB
:102440001B68012B03D12968306800F087F93868D0
:10245000154A16493060FEF77FFD0023236002F025
:102460009BFFCDE9020102A968460AF0B9FD0AF016
:10247000C0FD0B460E490246D1E9006096429841E4
:1024800004D20C48C1E900230AF049FC0AF0C1FB60
:10249000C8E700BF800900207409002084090020DB
:1024A000900900209C09002070090020F4520020AF
:1024B0008806002093EA0000F0B585B003F0F4F937
:1024C00003F0FEF91C4C1D4D02F066FF2368012B42
:1024D000CDE9000115D12868194F1A4E00F024F9F2
:1024E000194B38601B68012B03D12968306800F054
:1024F00035F9386830600AF091FB144B18600023FE
:10250000236002F049FFCDE9020102A968460AF002
:1025100067FD0AF06EFD0B460D490246D1E90060E9
:102520009642984104D20B48C1E900230AF0F7FB18
:102530000AF06FFBC8E700BF78090020740900208B
:1025400084090020880900209C09002098090020A7
:1025500078060020A7EA0000F0B585B003F0A4F9E2
:1025600003F0AEF91C4C1D4D02F016FF2368012B41
:10257000CDE9000115D12868194F1A4E00F0D4F8A2
:10258000194B38601B68012B03D12968306800F0B3
:10259000E5F8386830600AF05AFB144B18600023E5
:1025A000236002F0F9FECDE9020102A968460AF0B3
:1025B00017FD0AF01EFD0B460D490246D1E90060E9
:1025C0009642984104D20B48C1E900230AF0A7FBC8
:1025D0000AF01FFBC8E700BF7C0900207409002037
:1025E000840900208C0900209C0900209409002007
:1025F00080060020BBEA00002DE9F04F83B000AF59
:10260000DFF8B0B07B602C4B01F1010A06461820C0
:1026100088461446CBF800A01A6008F0ADFA81464F
:1026200028B9264808F046FF022008F091FA304603
:10263000FEF787FC08F0A0FA05464FEA8A0008F08A
:102640009BFADBF80030C9F80C009A00D11D21F08C
:102650000701ADEB010D4FF0000C6946E3469C45C8
:102660000BDB0BF009FA04FB0AF008F085FA82464E
:1026700040B9484608F088FAD3E741F82CB00CF18D
:10268000010CECE7C9E90148C9F800503146284679
:102690000BF013FB0022A24206DB48460C37C9E9C7
:1026A00004AABD46BDE8F08F7B68995C0AF8021069
:1026B0000132F0E7BC090020B8090020CFEA000091
:1026C000F0B502464FF02003EFF3118583F3128833
:1026D000BFF36F8F1149124C0E6812490069D1F88F
:1026E00000C0002323609E4205DC85F31188BFF300
:1026F0006F8F00200BE057692168874208D0D768A8
:1027000057F8217027B985F31188BFF36F8FF0BD9B
:102710000131604421600133E5E700BFBC090020BE
:10272000C0090020B809002010B503464FF0200270
:10273000EFF3118482F31288BFF36F8F064A40696A
:102740001168DA6852F82130013342F8213084F3FD
:102750001188BFF36F8F10BDC009002070B54FF016
:102760002003EFF3118483F31288BFF36F8F0F4BB5
:102770000A691D680E4B1E6800239D4201DD8242DE
:102780000AD1CA689D0052F82330002B07DC84F37D
:102790001188BFF36F8F70BD32440133EDE7496993
:1027A00081421CBF03F1FF335351F0E7BC09002005
:1027B000B80900202DE9F04F8DB01F46029202F0BB
:1027C0000403C2F3C2020193531C8207DDF8589040
:1027D000049305460E4640F05882041D002840F040
:1027E000578201F00706341DC6F108064FF0000AB3
:1027F0004FF004087B1ECDF80CA052465146CDF890
:10280000008005B127600498002807DCCB48874288
:10281000C0F04881CA48874280F04481029810F095
:10282000020E00F064814FF0010C601BBEF1000F3E
:1028300000F03E81B0F5007FC0F03A81C149C24A44
:10284000C2484FF4F8730AF01EFBC1480AF01BFBA4
:102850004FF4F871BC480AF00FFB6FF01500FBE075
:1028600041B9252840F0478101214FF00408CDF8F7
:10287000008040E12B2825D81F2801D800213AE10B
:10288000A0F1200CBCF10B0FF8D80FF2080E5EF887
:102890002CF000BFF72A00007D2800007D280000F2
:1028A000F72A00007D2800007D2800007D28000018
:1028B0007D2800007D2800007D280000732A00008C
:1028C000F72A0000A0F12D0C5FFA8CFEBEF14D0F2F
:1028D000D4D8BCF14D0FD1D80FF2040E5EF82CF015
:1028E000F72A0000F72A00007D280000F72A0000E0
:1028F000F72A0000F72A0000F72A0000F72A000054
:10290000F72A0000F72A0000F72A0000F72A000043
:10291000F72A00007D2800007D2800007D280000A7
:102920007D2800007D2800007D2800007D28000013
:10293000372A00007D2800007D2800007D28000047
:10294000372A0000372A0000372A00007D280000BF
:102950007D2800007D2800007D280000F72A000067
:102960007D2800007D2800007D2800007D280000D3
:102970007D2800007D2800007D2800007D280000C3
:102980007D2800007D2800007D280000192A000015
:102990007D2800007D2800007D2800007D280000A3
:1029A0007D2800007D2800007D2800007D28000093
:1029B000372A00007D280000192A0000192A00008B
:1029C000372A0000372A0000372A0000F72A0000C3
:1029D000192A0000672A00007D280000F72A00005D
:1029E0007D2800006D2A0000192A00006D2A0000D1
:1029F0007D2800007D2800006D2A00006B28000063
:102A0000192A00007D2800007D280000192A0000F6
:102A10007D2800006B28000013F8011C6C2927D1C9
:102A200013F8021C6C294FF0000138D04FF0040855
:102A3000CDF800801DE009F1070929F007090734E6
:102A4000F9E8020124F007045DB1DDF814E0A644C2
:102A5000B64504D96FF01B000DB0BDE8F08FC4E996
:102A60000001083400214FF0080800E70021DDE7ED
:102A70000021013C4444C8F1000C04EA0C0435B1C7
:102A8000DDF800C0ACEB050CA4446645E2D3732826
:102A900070D1049859F8047B01380490B1E64FF0E6
:102AA0000808C5E702984FF0000C00F0020EBCE6E3
:102AB0000F2A0CD92349244A244840F2F5130AF07E
:102AC000E2F924480AF0DFF940F2F511C2E675B3E5
:102AD0000DF1300EC0F387009644BCF1000F20D0FA
:102AE00060F07F000EF8100C0AF1010A0132C5F106
:102AF00008000434059013F8010F00287FF4B0AEED
:102B0000611BB1F5806F5FD30E490F4A0F4840F249
:102B10003D230AF0B8F910480AF0B5F940F23D211A
:102B200098E60EF8100C039801300390DEE7BCF134
:102B3000000F01D1019888B10136D7E714E10000F8
:102B4000D00E0100BDF70000D8EA000006EB00003F
:102B500023EB000044EB000073EB00003846CDE9A6
:102B600006210593FEF7EDF90236DDE90621059B06
:102B70000644BBE70098042808D109F1040C15B1FC
:102B8000D9F8000020600434E146B4E70098082832
:102B90000CD109F1070020F0070000F108091DB170
:102BA000D0E900BCC4E900BC0834A4E73A4A3B4978
:102BB0003B4840F231230AF066F9009939480AF09F
:102BC00062F940F2312145E61DB9A6F1080460180A
:102BD00042E7019B2860890829709DF80C10A3B179
:102BE0006870E97085F802A0BAF1000F06D008A855
:102BF0004FF0000CC5F1010E62450AD10DF120081D
:102C000008EB0209C5F1010B39E0019B6970EB701B
:102C1000E8E710F8011B0B0608D504EB0E08464543
:102C200001F07F01FFF416AF04F8011B0CF1010C59
:102C3000E2E7BAF1000F03D098F90020002A1CDB6C
:102C4000019B03BB98F8002055F8227045F822300C
:102C50003846FEF776F9421C04EB0B0111448E4214
:102C6000FFF4F8AE98F8001004F8011B394620462E
:102C700000920AF001FF009A144408F10108C145CE
:102C8000D7D1601BE8E60022E6E76FF00D00E3E62F
:102C900007293FF6ABADDDE6D8EA0000BDF700003E
:102CA00006EB00005EEB000038B54468816004F07C
:102CB0000304032C054602D02CB1002000E000687C
:102CC00000236B6038BD054A0549064845230AF0D4
:102CD000DAF8024845210AF0CFF8EEE78AEB000067
:102CE000BDF7000006EB0000014B1860704700BF05
:102CF000980000202DE9F74FB0F81C90009219F0D1
:102D0000080F044622D001290CBF49F0100949F0F0
:102D10002009A0F81C901434204605F099FE68B9EB
:102D20009B4A9C499C48B9230AF0ADF89B48214630
:102D30000AF0A9F89648B9210AF09EF8009B83F39F
:102D40001188BFF36F8F03B0BDE8F08F944FDFF8A9
:102D5000488209F00709022906D1204609F0ECFF54
:102D60000028D8D0012864D1D4F818B0A38BBBF1C7
:102D7000000F19DA0026256823F00703C4E900666E
:102D800043F00103A383A38B03F007024A4501929A
:102D900003D0A268002A40F0138115B9002E00F07C
:102DA00059814FF0000A0DE103F00702511F01297C
:102DB00020D8002123F00703062A25689BB2C4E926
:102DC00000110AD13DB1E28B29460968013292B265
:102DD0000029FAD1E28343F00203A383204609F0DD
:102DE000ABFF06460028CED0A38B43F02003A3837D
:102DF0000026C8E7042A0DD123F007039AB2A28364
:102E0000204609F099FF054688B142F02002A283CE
:102E10000025EDE7634940F21B133A4640460AF0AD
:102E200032F840F21B1138460AF026F800252E46EB
:102E3000A9E7032834D1B9F1000F0BD05A49404615
:102E40004FF4AB733A460AF01EF84FF4AB713846B4
:102E50000AF012F823685BB95449404640F2571310
:102E60003A460AF010F840F2571138460AF004F8D2
:102E700023691E685EB94E4940464FF4AD733A4629
:102E80000AF001F84FF4AD71384609F0F5FFA38B55
:102E900023F0070343F00603A3830025AB4672E744
:102EA000042831D1B9F1020F0BD04249404640F21B
:102EB0005D133A4609F0E7FF40F25D11384609F02C
:102EC000DBFFE38B5BB13C4940464FF4AF733A46BE
:102ED00009F0D9FF4FF4AF71384609F0CDFF2369EF
:102EE0005E685EB93249404640F261133A4609F0E5
:102EF000CAFF40F26111384609F0BEFFA38B23F0F0
:102F0000070343F00403C7E7052831D1B9F1010FE6
:102F10000BD02A4940464FF4B2733A4609F0B3FF4A
:102F20004FF4B271384609F0A7FF23685BB91F4917
:102F3000404640F265133A4609F0A5FF40F265119C
:102F4000384609F099FF23699E685EB918494046E2
:102F50004FF4B4733A4609F096FF4FF4B471384613
:102F600009F08AFFA38B23F0070343F0050393E7DF
:102F70000C4940F26B133A46404609F084FF0025A5
:102F800040F26B11384609F077FF2E4686E700BF06
:102F900050EC00007DEC000006EB000094EC00001B
:102FA000ADEB0000BDF70000CFEB0000DBEB000055
:102FB000FEEB000015EC00002BEC00003AEC0000EA
:102FC0004FF0010A43F0080304F11409A3834846B3
:102FD00005F03EFD68B9384A3849B923404609F042
:102FE00052FF3748494609F04EFF3348B92109F0EE
:102FF00043FF009B83F31188BFF36F8FBAF1000F7B
:1030000037D1002D47D116B12E492046B0474FF099
:103010002003EFF3118B83F31288BFF36F8F4846C1
:10302000CDF800B005F006FD68B9234A26498E2385
:10303000404609F028FF2548494609F024FF1E486C
:103040008E2109F019FF484605F012FDA38B23F0ED
:103050000803A383A38BDA0625D523F01003A383EB
:103060000121B4F81C9009F0070900297FF473AE20
:1030700051E6A1680029C4D0D1F800A04B68019A9C
:103080009C4620465B46E047BAF1000FB9D0514656
:10309000DAF800A0F2E72946019A2D685B4620463F
:1030A00009F066FEADE713F020011EBF23F02003F8
:1030B000A3830221D5E700BF50EC00007DEC0000A7
:1030C00094EC0000D1300000A9EC0000BEEC000040
:1030D000F8B504460D4600F114064FF02003EFF357
:1030E000118783F31288BFF36F8F304605F0A2FC7F
:1030F00068B90C4A0C490D488E2309F0C4FE0C48EF
:10310000314609F0C0FE07488E2109F0B5FE304671
:1031100005F0AEFCA5613A4620460121BDE8F84025
:10312000FFF7E8BD50EC0000A9EC000006EB000042
:10313000BEEC00002DE9F04704460F4609F02EFED4
:10314000051E5EDB04F114094FF02003EFF3118A32
:1031500083F31288BFF36F8F484605F06BFC68B9A4
:10316000384A394939488E2309F08DFE3848494696
:1031700009F089FE33488E2109F07EFE484605F0AD
:1031800077FCE38BA28B4FF6FF718B4202F00706B0
:1031900050D0022E24D10133E38335464FF001088D
:1031A000484605F055FC68B9264A2A492748B923FC
:1031B00009F069FE2848494609F065FE2148B92111
:1031C00009F05AFE8AF31188BFF36F8FB8F1000F30
:1031D00017D0002332463946204609F0C9FD10E0D9
:1031E000930701D0062E0FD100233B606368F3B92B
:1031F000C4E900773546FEB9524602212046FFF762
:1032000079FD2846BDE8F087052E18D0012E0BD099
:1032100012490E48124A40F2C91309F034FE104810
:1032200040F2C91109F028FE6FF0040504E01F60A8
:103230006760DFE76FF00A054FF00008B0E76FF056
:103240008505F9E750EC0000A9EC000006EB000052
:10325000BEEC00007DEC000094EC00003AEC0000B5
:10326000ADEB0000B2F5802F2DE9F04104460E468B
:1032700017466AD33E493F4A3F4840F2E31309F0FC
:1032800002FE3E4809F0FFFD40F2E311394809F023
:10329000F3FD043FF51D3E4425F0070526F0070623
:1032A000761B172E4FEAD6070ED83549314A3248D9
:1032B00040F2F31309F0E7FD324809F0E4FD2D4830
:1032C00040F2F31109F0D8FD2560B7FA87F4C4F194
:1032D0002008C4F12404A40007340023E408EB60B0
:1032E000631CBB42AF600ED92749224A22484FF4E3
:1032F000017309F0C8FD234809F0C5FD1D484FF4CE
:10330000017109F0B9FD05F1100303EB88080022F3
:10331000984529D1630043F001036B8005EBC4019C
:103320003B1B58002A804880A91925F834404A8060
:10333000AB5305EBC70321465A8842F001022846E9
:103340005A80BDE8F04109F05ABD042AA1D80F49BE
:10335000084A09484FF4F57309F095FD094809F04A
:1033600092FD4FF4F57191E743F8042BD0E700BFCD
:10337000A2ED0000D6EC000006EB0000B8ED000066
:1033800009EE0000F0ED000032EE0000CFED00008D
:10339000F0B5084E026803460A27002011460132A4
:1033A0000C78A55D6D0701D41960F0BD07FB0040E6
:1033B0003038F3E7CA0501002DE9F84F15469A4663
:1033C000D378224A13F802B06F2B80460F460BF0D9
:1033D000030B29D024D8582B14BF0A261026DDF859
:1033E00028903246002340463946FDF76DFB092AF6
:1033F000D4B21ED83034B045E4B277F1000309F8F6
:10340000014D01D3D14511D82B789B0605D5082E47
:1034100015D1AB7843F00803AB704846BDE8F88F90
:1034200003F0F703702BD7E70826D8E780460F464E
:10343000D7E7BBF1010F0CBF37345734DBE7102E51
:10344000EBD1AB7843F01003E6E700BFCA050100FB
:103450002DE9F04F824693B08B4691461C460025DD
:1034600099F8000008B928463DE309F10103252831
:10347000029306D05946D0470028C0F23483013564
:10348000F5E1182200210CA80AF004FB99F801309C
:10349000252B5AD009F10102164612F8013B2B2BBD
:1034A00000F08B8079D8202B00F08C80232B00F04B
:1034B0008E809DF8383003F04402442A03D16FF324
:1034C00086138DF838309DF83830059643F0800328
:1034D0008DF8383033782A2B7ED19DF8393043F07F
:1034E00001038DF83930731C05931A782E2A9DF844
:1034F00039200CBF0121002161F341028DF83920F0
:103500000BD15A1C05925A782A2A7BD19DF8392072
:1035100042F004028DF839200233194611F8010BEC
:103520006C2800F0B6807DD8682800F084806A2876
:1035300000F0B9804C2800F0BD809DF839206FF371
:10354000C6028DF83920194680E009F10202029284
:103550008DF83B309DF83930D90740F14A8154F855
:10356000048BB8F1000F07DA9DF8382042F004020E
:103570008DF83820C8F100085A0740F1438154F80B
:10358000047B002F80F242819DF839306FF34103B4
:103590008DF839304FF0FF3738E12D2B06D0302B26
:1035A00087D19DF8383043F0400303E09DF8383070
:1035B00043F004038DF838306EE79DF8383043F05F
:1035C0000803F7E79DF8383043F01003F2E79DF861
:1035D000383043F02003EDE705A8FFF7D9FE059B3F
:1035E000B34281D09DF838100F90C1F3400242EAF7
:1035F000D072520062F07F0201F07D010A438DF823
:10360000382071E705A8FFF7C3FE9DF83830109009
:10361000C3F3400242EAD07060F341038DF83830C2
:10362000059B7AE774289DF8392040D07A2884D108
:103630001346062228E05A78682A9DF8392021D1BD
:10364000012161F3C6028DF83920991C0B4613F84D
:10365000012B0293782A9DF839308DF83B2000F237
:10366000C080572A33D8412A03D0453A022A00F2B3
:10367000B8809DF83A30042262F302038DF83A30A4
:10368000012385E01346022262F3C6038DF8393028
:10369000DCE75A786C2A9DF8392001D10421D0E763
:1036A00013460322F0E79DF839300522ECE7134674
:1036B0000722E9E7BDF8383023F4F04323F0020392
:1036C00043F4804343F00203ADF83830BEE7A2F183
:1036D0005801202900F2858001A050F821F000BF98
:1036E000A5370000E3370000E3370000E3370000B0
:1036F000E3370000E3370000E3370000E337000062
:10370000E337000073360000E3370000A537000000
:103710006537000073360000733600007336000012
:10372000E337000065370000E3370000E3370000AF
:10373000E3370000E3370000AD370000A537000095
:10374000C9370000E3370000E3370000C937000045
:10375000E3370000A5370000E3370000E33700003F
:10376000A53700009DF83A10012003F0780360F3BC
:103770000201402B8DF83A1002BF9DF8381041F03D
:1037800001018DF83810632A31D1003B18BF0123A5
:103790009DF83820C2F340010B4363F341028DF8DA
:1037A0003820D7E69DF83A100220DEE79DF83A204F
:1037B00003F07803A3F14000032161F302024342C6
:1037C0008DF83A204341E3E79DF83A20032113F0B6
:1037D000780F61F302028DF83A2014BF0123002311
:1037E000D6E79DF8383043F001038DF838300023D8
:1037F000CEE79DF93820002AB4BFDDF83C804FF0B9
:10380000FF38B9E69F077FF5C5AE109F9DF83910C8
:103810000023CDE90F339DF83A3003F00703012B65
:10382000C1F3C30139D1CB1E042B23D8DFE803F049
:1038300003090922220054F8043BDA17CDE90C32BF
:1038400006E0073424F00704F4E80223CDE90C2352
:103850009DF8383013F0030657D0029B4A4659466C
:10386000504609F0F3FA0028C0F23D810544DDF826
:103870000890F5E554F8043B01294FEAE372CDE9DD
:103880000C3205D19DF830300C9300230D93DFE707
:103890000229DDD1BDF93030CFE7022B23D1CB1E79
:1038A000042B13D8DFE803F0030A0A12120022687F
:1038B0000C920023201D0D930446C9E7E01D20F063
:1038C0000700F0E80223CDE90C23F5E754F8043BA8
:1038D0000C9301294FF000030D93D3D00229B7D1E7
:1038E000BDF83030D0E7042B09D1E31D23F00703E6
:1038F00003F10804D3E90023CDE90C23A8E7032B47
:1039000004BF54F8043B0C93A2E79DF83B007828D1
:10391000ADD8622820D825283FF4ACAD5828A6D1D0
:103920000DF12E030093DDE90C0106AB0EAAFFF7A3
:1039300043FD8146002F0DF12E000BDB9DF8382052
:10394000A0EB09036FF386129F428DF8382001D94E
:10395000FB1A0F9307463CE06338152887D801A26D
:1039600052F820F0E3390000453A00006F380000BB
:103970006F3800006F3800006F380000453A0000D3
:103980006F3800006F3800006F3800006F3800009B
:103990009F3A00006D3A0000713A00006F38000055
:1039A0006F380000BD3900006F3800006D3A00002C
:1039B0006F3800006F3800006D3A0000002FDDF80E
:1039C00030900ADB394648460AF07FF909EB0007D8
:1039D0000026B9F1000F0CD149E74846FDF7B1FACE
:1039E000F4E70C9B8DF8183000260DF119070DF146
:1039F0001809A7EB090306B101339DF83A20D00658
:103A000066D5023352060F9948BF109A0B4448BF3F
:103A10009B18B8F1000F73DD9DF83820A8EB030860
:103A2000C2F38003039353076AD450065ED53EB1B8
:103A300059463046D047002855DB039B01351E46CA
:103A4000302354E01E070FD413F0100618BF2026B1
:103A5000DDE90C23002BBFF663AF524263EB430357
:103A6000CDE90C232D265BE72B26F1E7002657E74F
:103A70000C9840B30DF12E0300930EAA06AB002163
:103A8000FFF79AFCBDF83A3003F0EF0343F4F0433C
:103A900043F010038146ADF83A3000264AE70C9B0C
:103AA00007293FF6E4AEDFE801F00C04060C080835
:103AB0000C0C1D70DBE61D80D9E6EA17C3E9005245
:103AC000D5E61D60D3E62E4F0646A7F1050990E71F
:103AD000110748BF013395E7184659460393D0476D
:103AE0000028039B04DA13B0BDE8F08F202345447F
:103AF0004246002AA5EB080108F1FF38ECDC0D4630
:103B00002EB159463046D0470028ECDB01359DF8F0
:103B10003A30D90601D41A0705D559463020D04786
:103B20000028E0DB01359DF83A30DB0606D59DF82C
:103B30003B005946D0470028D5DB01350F9E2E4467
:103B4000731B002B15DC3B464A465946504609F08C
:103B50007DF90028C7DB0544A844A8EB0503002B2A
:103B60007FF785AE59462020D0470028BBDB0135C2
:103B7000F3E759463020D0470028B4DB0135DFE7B2
:103B800062EE000008B54FF02002EFF3118382F3DC
:103B90001288BFF36F8F01F067FE034809F0BFF88A
:103BA00000F070FEFCE700BF63EE00002DE9F04777
:103BB00006460C4659B9124D124B134FDFF84C9084
:103BC000DFF84CA05B1B4FEA2318444501DBBDE83E
:103BD000F087284609F065F978B14EB94946504654
:103BE00086233A4609F04FF98621384609F044F910
:103BF0002B6831461B682846984701341035E4E7A6
:103C0000F4E3000014E400008CEE0000C4EE0000B9
:103C100006EB0000014B53F820007047B0E50000B0
:103C2000054A00231370054A1360054B054A1A60C4
:103C30004FF4004000F090BAF6D20020C8090020EE
:103C40009C000020A9CE000070B5194B194CE41A55
:103C5000902C0BD918491948194A40F2732309F0DE
:103C600012F9174840F2732109F006F9BFF35B8F90
:103C7000144B53E8006F721C43E800210029F8D16F
:103C8000BFF35B8F1EB92511094CAE4200DB70BD3E
:103C9000237B53B123689B690BB120469847636827
:103CA00004221968204600F06FF801361034ECE762
:103CB000F4E3000014E400001CEF000006EB000039
:103CC000D7EE0000CC090020F8B50C4F3D784DB977
:103CD0000B4C0C4EFFF7B8FF361B3611B54202DB1A
:103CE00001233B70F8BD204609F0DBF818B12368CA
:103CF00020465B69984701351034EFE7F6D2002083
:103D0000F4E3000014E40000014B01221A70704734
:103D1000F5D200200C4BBFF35B8F53E8002F01322C
:103D200043E800210029F8D1BFF35B8F58B1BFF3FE
:103D30005B8F064B53E8002F013A43E8002100292E
:103D4000F8D1BFF35B8F7047C8090020C409002079
:103D5000054B10B51B68044698470021A06020461B
:103D6000BDE81040FFF722BF9C000020044A054B2D
:103D70009B1AB1EBD30F34BF52F8310000207047CB
:103D8000A4E30000F4E3000070B503680E4C1B6868
:103D9000041B241105460E46013463B90B490C4A35
:103DA0000C48BB2309F06FF80B4809F06CF8084881
:103DB000BB2109F061F86B6801221C711E605A7109
:103DC000BDE87040FFF7A0BFF4E300009CEF0000E7
:103DD00044EF000006EB0000B2EF00000EB403B5A4
:103DE00003AB014653F8042B04480193FFF730FB63
:103DF00002B05DF804EB03B0704700BFDBCE0000FB
:103E00002DE9F04F87B01C4601F0010305929DF8A3
:103E10004090BDF948A004930746884601F0020B84
:103E200001F0080609F057F80246002844D03A4944
:103E30003846FFF7D3FF0546BBF1000F08D018F056
:103E4000440F3BD1354922463846FFF7C7FF0544AA
:103E5000049B53B1324B334953F82920324B384637
:103E6000002A08BF1A46FFF7B9FF3EB12F4B304971
:103E700053F829203846FFF7B1FF0646BAF1000F84
:103E800016DB059B002B45D0012303FA09F9294BCA
:103E9000294C19F0100F18BF1C4651469DF84400DC
:103EA000FFF764FF214602463846FFF797FF0644B6
:103EB000701907B0BDE8F08F0546BDE71F4B1868C5
:103EC0000028C4D01E4B4FF47A781B68B4FBF3F47F
:103ED0004FF46161B4FBF0F300FB134408FB04F4FE
:103EE0004FF03C0CB3FBF1F201FB1231B4FBF0FEDE
:103EF000B1FBFCF300FB1E440CFB131108FB04F4A4
:103F00000091B4FBF0F00F49CDE901E03846FFF72E
:103F100065FF9CE7084CC0E7E2EF0000E6EF000019
:103F2000BCE500000BF00000D4EF0000D0E500007D
:103F30000EF00000DEEF0000D9EF0000D0090020F5
:103F4000D4090020EFEF00002DE9F0471D46089B43
:103F50001746DA0604460E4605D499064CBF2B498F
:103F60002B49FFF73BFFDFF8AC904FF00008A84566
:103F70002DDBDFF8A480DFF8A490DFF898A00025FF
:103F8000BD4232D2725D49462046FFF727FF013518
:103F9000102D23D12249DFF87C80DFF88890DFF8EC
:103FA00088A02046FFF71AFF0025AF4229D9725D8D
:103FB00012F8093013F0970F08BF2E225146204601
:103FC000FFF70CFF0135102D14D1BDE8F0874946ED
:103FD0002046FFF703FF08F10108C8E76A07CFD1C1
:103FE00051462046FFF7FAFECAE741462046FFF752
:103FF000F5FECCE76B07D8D141462046FFF7EEFE31
:10400000D3E741462046FFF7E9FEDBE76403010002
:1040100014F000001FF000001DF0000017F0000079
:1040200021F00000CA05010023F0000038B50C465D
:10403000E107054603D5084A0849FFF7CFFEE20627
:1040400008D4A30628464CBF05490649BDE83840B8
:10405000FFF7C4BE38BD00BFD4EF00000BF0000076
:104060006403010014F000002DE9FF470B8813F4EE
:10407000E07F06460C469046C3F382195BD00A786F
:104080004B68C2F3C202002B52D02C495B1A43F397
:10409000CF03CDE90123CDF80090A368002241466B
:1040A0003046FFF7ADFE8246254655F8103BC3F378
:1040B0004923C3B1224F23482349B9F1000F08BF58
:1040C00038462B46324608F0E8FD00280BDA1F4937
:1040D0001F48204A40F2B72308F0D5FE1D4840F2A1
:1040E000B72108F0C9FE6788C7F3CB0797B12168ED
:1040F000C1F349210D44102F3C4628BF1024294606
:10410000CDF80080534622463046FFF71DFF3F1B87
:104110002544F0D1B9F1000F04D04A46414630465B
:10412000FFF784FF304604B0BDE8F04708F0FDBE5D
:104130004FF0FF33ADE7CA46B6E700BFA4E3000087
:10414000F7CE0000DBCE00005134000062F000002A
:1041500006EB000026F00000084A10B50123084CC9
:1041600013600021A04204D801B11360054B186010
:1041700010BD40085B000121F4E700BFD409002016
:1041800040420F00D00900202DE9F04F85B002AF6A
:10419000D7E90DB80546894614469A46B8F1000F8E
:1041A0004ED0FB6B7B6000935A46434610210020A3
:1041B000FEF700FB061E09DA22492348234A67233B
:1041C00008F061FE2148672108F056FE04F007025E
:1041D00005F00704E4001E4D1E4B44EA82143A6BBE
:1041E00005EA46252C4303EAC2431C431346173312
:1041F000334423F00703ADEB030D02ADB8F1000F1C
:1042000014D0FB6B00935A464346314605F110002B
:10421000FEF7D0FA002809DA0A490B480B4A812335
:1042200008F031FE0948812108F026FE5346224657
:104230004946284608F086FE0C37BD46BDE8F08F9B
:104240004646C3E7B8F0000006EB00008BF0000024
:1042500000FE07000000F87FF8B5074F0D46044642
:104260004618B44201D12846F8BD386814F8011B3D
:104270008368DB699847F4E7F0090020014B0020D0
:1042800019607047E0090020024B034801221A70B0
:1042900008F04BBEF7D2002004E60000064B10B534
:1042A00018680C46FFF7B6FC21460346BDE81040EF
:1042B00002480F22184700BFE009002004E6000072
:1042C00008B5094B0948186009F024FB58B908499A
:1042D0000848094A792308F0D6FDBDE80840064899
:1042E000792108F0C9BD08BDF0090020F4E1000003
:1042F000F7F0000006EB0000C2F00000014B0122C5
:104300001A707047FAD20020014B002019607047E4
:10431000FC090020024B034801221A7008F005BE78
:10432000FBD2002034E60000064B10B518680C469E
:10433000FFF770FC21460346BDE8104002480F22FB
:10434000184700BFFC09002034E60000F8B5194DFD
:1043500007460E46042432463946002003F03EFF4D
:10436000C8B101232B70144B1B782BB93046F8BD14
:104370005CB92C704FF0FF34002003F07BFF002865
:10438000F4D02B78002BF3D1F0E7013C41F28830D8
:1043900009F038FBF0E72B7813B1013C04D12C7005
:1043A0002B78002BD7D1E1E741F2883009F02AFBC6
:1043B000F6E700BFFAD20020FBD200202DE9F84337
:1043C00005464FF02003EFF3118683F31288BFF305
:1043D0006F8F224804F02EFB68B9214A21492248F8
:1043E0008E2308F050FD1D49204808F04CFD1C4864
:1043F0008E2108F041FD194804F03AFB1C4B1C6863
:104400009CB11C4FDFF870804FF00C09D4E90132E9
:10441000002D08BF13462BB198F8142009FB02F2B7
:10442000B85C98472468002CF0D10C4804F010FBCD
:1044300068B90B4A11490C48B92308F024FD074913
:104440000F4808F020FD0648B92108F015FD86F355
:104450001188BFF36F8FBDE8F88300BF0C0A0020FE
:1044600050EC0000A9EC000006EB0000BEEC0000E0
:10447000100A0020180A0020C41000207DEC000063
:1044800094EC00004209012300F01F0003FA00F041
:10449000074BBFF35B8FC04303EB820353E8002F4E
:1044A000024043E800210029F8D1BFF35B8F704739
:1044B000240A002038B51A4B1C7DBFF35B8F04F033
:1044C0001F0301229A40174B6109D04303EB81037C
:1044D00053E8001F01EA000543E8005CBCF1000F4F
:1044E000F6D1BFF35B8F114213D00F4B0F4D8BB141
:1044F0000C236343EA18E85C517808F0C6FD0020FD
:10450000FFF75CFF0C235C432A1900232B51C2E9FF
:10451000013338BD83F31188BFF36F8FEFE700BF1E
:10452000C4100020280A00208BD00000180A0020A8
:104530002DE9F843324B334A1C7DBFF35B8F63098F
:104540004FEA830952F823302F4EBFF35B8F04F0FC
:104550001F0843FA08F313F0010F07460AD101467A
:10456000204600F069F828B107C80C2303FB046358
:1045700083E807000C236343F218F55C2DB920464D
:10458000FFF780FF2846BDE8F8837B1C0FD0D2F8E8
:1045900008C01E481E4A4FF4004500210023ECFBD2
:1045A0000501FCF791FA0121381A06F033F804F0FE
:1045B00025FE0120FFF702FFBFF35B8F012303FA03
:1045C00008F8144B994459E8003F43EA080349E8C6
:1045D0000032002AF7D1BFF35B8F0F4B33B10C23AE
:1045E0006343F218F05C517808F043FDFFF762FF77
:1045F0002046FFF747FF05F0EBFA0120C3E700BFB5
:10460000C4100020240A0020180A00203F420F0096
:1046100040420F00280A002073D00000054BBFF372
:104620005B8F53F82000BFF35B8F003818BF012069
:10463000704700BF2C0A00202DE9F04F85B00F46CF
:1046400003A900F047F8DFF88080DFF880A0441E5F
:1046500024B24FF0000B631C04D10026304605B095
:10466000BDE8F08F039A04EB440302EB830612F8D3
:104670002300FFF7D3FF054610BB70684FF40049D5
:10468000C4462946E0FB09C152465B466046FCF73A
:104690001BFA0190B068C4462946E0FB09C15B469D
:1046A00052466046FCF710FA094B1B68591C01D0B2
:1046B000834205D97A1CD1D0019B1844B842CDD988
:1046C000013C24B2C7E700BF3F420F0040420F0049
:1046D000A000002008B9024B0B600020704700BF0B
:1046E00044E60000014808F005B900BF44E60000B8
:1046F00010B5044618B90D4B0D485B6898476168C2
:1047000008290DD031F004030AD011F0020108D0BD
:104710000848214603F0EEFF002323600023636076
:1047200010BD2068142209F0B5F9F7E758030020FE
:104730003EF10000480A002008B508B34368042B86
:1047400010D101220368BFF35B8F53E8001F0029DB
:1047500003D143E800200028F7D1BFF35B8F0BD1D2
:10476000002008BD53B100684FF0FF324FF0FF3317
:1047700004F0B8F90028F3D00348F2E70348F0E763
:104780006FF4E040EDE700BFE98FFFFFEA8FFFFF26
:1047900008B5D0B14368042B11D100220368BFF3E0
:1047A0005B8F53E8001F012903D143E80020002854
:1047B000F7D1BFF35B8F074808BF104608BD3BB178
:1047C000006804F089FA0020F8E76FF4E040F5E7AC
:1047D0000148F3E7E98FFFFFEA8FFFFF10B50446BA
:1047E00018B9164B16485B6898476368042B23D0AA
:1047F000082B21D0CBB92368BBB912484FF0FF3248
:104800004FF0FF33214603F009FF08B923681BB9B5
:104810000A4B0D485B68984720681422002109F074
:1048200039F9636843F002036360206809F0C3F854
:10483000636843F00103636010BD00BF58030020AC
:104840003EF10000480A002064F1000008B5064966
:1048500006484023142209F07BF8BDE808400449CB
:10486000044808F0A7B800BF680A0020480A0020E2
:104870005CE600004CE60000014910220A60704727
:1048800010ED00E072B6404080F31188BFF36F8FE7
:10489000BFF34F8F30BF62B6BFF36F8F704700BF5B
:1048A00072B6494081F3118820BF80F3118862B647
:1048B000704700BF70B5064686B00D46002938D057
:1048C0008B6805934B6804930B68039300241C4B7F
:1048D0001C490293012223462046CDE9004408F0FA
:1048E00050FB6B6905932B690493EB680393164B9C
:1048F00014490094CDE9014301222346204608F0E3
:1049000040FBEB690393114B0E490094CDE9014341
:1049100001222346204608F034FBAB6903930C4B7D
:1049200008490094CDE9014301222346204608F0BE
:1049300028FB2946304606B0BDE8704003F0EEBCC7
:1049400091F10000D4E30000C0F10000EFF100009D
:10495000FEF1000043B2002B08DB012200F01F0033
:1049600002FA00F05B09024A42F82300704700BFD8
:1049700000E100E0054B420900F01F0053F822203F
:10498000012303FA00F01040704700BF00E100E08F
:1049900070B54C1C072C05460E460FD9114A12491A
:1049A0001248572308F06FFA1148314607232A4668
:1049B00008F069FA0B48572108F05EFA6BB2002B39
:1049C000ACBF03F160430B4B4FEA4414B8BF05F092
:1049D0000F05E4B2AABF03F561435C5583F80043B9
:1049E00070BD00BF2CF2000062F2000006EB000078
:1049F0007DF2000014ED00E030BFFFF7FDBF00BF07
:104A00000B4A08B50B4B22F07F029A60BFF34F8F21
:104A1000BFF36F8FD3F8882022F47002C3F8882088
:104A200003F010FD05F034FC00F0EEFB03F04EFD4A
:104A30000000000000ED00E0094A0A499368096897
:104A40009967094958674B6843F080534B600023CE
:104A500083F31188BFF36F8F9368986F704700BF1F
:104A6000C4100020D8E7000000ED00E012498A6879
:104A70004FF030001044EFF3098C80E8F01F202045
:104A800080F31288BFF36F8F0C4F4FF00066CA6936
:104A90008A603E60506F0023536780F3118804B52D
:104AA000104600F09BFCBDE8044002F1300090E8A5
:104AB000F01F8CF309887047C410002004ED00E05B
:104AC0001EF0040F0CBFEFF30880EFF3098081693B
:104AD00011F8021C0229FFD001B508F062FA01BDED
:104AE00042F8203C009B42F81C3C0A49019B42F8DA
:104AF000183C029B42F8143C21F001014FF08073F6
:104B000042F8043C42F8081C0023203A026543673F
:104B1000704700BFE1CD0000094A0346906870B1BC
:104B200013F1160F406E05D0A0F120029A4205D86D
:104B3000834203D2814228BF002070470020704783
:104B4000C410002008B5094B98600D46144600F0CB
:104B500045FC204685F30988002163B681F311885E
:104B6000BFF36F8F0022002308F03AF9C410002031
:104B700001B572B60B4A906900281EBF00219161F1
:104B800008F00AFF62B6EFF30580A0F110004FEACB
:104B9000C0000549014409C99847BDE801400349DF
:104BA00008470000C410002024E20000B14B0000C0
:104BB000044B9968D869884203D003494FF080526A
:104BC0000A607047C410002004ED00E0F0B585B025
:104BD00000243B4B0293CDE90044234607460E4692
:104BE00001223849204608F0EBF9374B9B6ADB0479
:104BF00009D5364B33490094CDE9014301222346C0
:104C0000204608F0DDF9304B9B6A1D0509D5304B75
:104C100002930023CDE900332A490122184608F007
:104C2000CFF9294DAB6A9C051ED50024294B029370
:104C3000012223462046CDE90044224908F0C0F96C
:104C4000AB6BAA6A10040FD50393234B1D49009444
:104C5000CDE9014301222346204608F0B1F91FB1F6
:104C6000AB6A23F40043AB62174B9B6A590509D525
:104C70001A4B02930023CDE9003312490122184652
:104C800008F09EF9104A936A13F4807312D0144B03
:104C900002930023CDE900330A490122184608F0A7
:104CA0008FF9094A936A002043F47F43936230707E
:104CB00005B0F0BD926A9204F3D50A4A0292E9E780
:104CC000BDF20000D4E3000000ED00E0D3F20000EC
:104CD000E4F20000F7F2000010F3000025F30000FA
:104CE00040F3000058F300001FB50024334B02933B
:104CF000CDE90044234632490122204608F060F9FC
:104D0000304B9B6A9B0109D52F4B2D490094CDE96F
:104D1000014301222346204608F052F9294B9B6AA1
:104D2000DC0109D5294B02930023CDE90033244946
:104D30000122184608F044F9224B9B6A180309D552
:104D4000234B02930023CDE900331D49012218466D
:104D500008F036F91B4B9B6A590309D51D4B02938A
:104D60000023CDE9003316490122184608F028F93E
:104D7000144B9B6A9A0309D5174B02930023CDE984
:104D800000330F490122184608F01AF90D4B9B6AAF
:104D9000DB0309D5114B02930023CDE90033084909
:104DA0000122184608F00CF9064A936A6FEA034399
:104DB0006FEA13430020936204B010BD87F3000034
:104DC000D4E3000000ED00E09FF30000B2F3000028
:104DD000CCF30000EAF300000FF4000029F4000017
:104DE0002DE9F04385B00024534B0293CDE90044F4
:104DF000234680468946164650490122204608F03F
:104E0000DFF84F4B9B6ADF0609D54E4B4B490094A8
:104E1000CDE9014301222346204608F0D1F8484B52
:104E20009B6A1D0709D5484B02930023CDE9003347
:104E300042490122184608F0C3F8414DAB6A9C076D
:104E400037D46FF015073E4B9B6AD90709D53F4B06
:104E500002930023CDE9003338490122184608F0B7
:104E6000AFF8374B9B6A9A0609D5394B029300235A
:104E7000CDE9003331490122184608F0A1F8304D40
:104E8000AB6ADB0637D4AB6A9C0734D400242C4BC6
:104E90009A6A920642BF5A6A22F400525A629A6A89
:104EA00042F0FF029A6220460023337005B0BDE84D
:104EB000F0830024274B029320462346CDE900448B
:104EC0001E49012208F07CF86F6BAB6A1806B8D552
:104ED000214B1A490397CDE901430094234601224F
:104EE000204608F06DF8B9F1000FACD0AB6A23F0A2
:104EF0008003AB62A7E76B681805C7D54146384603
:104F0000FFF70AFE044618B180F309880224BEE7C1
:104F1000AB6AD906BAD5114A1149124840F2491371
:104F200007F0B1FF104807F0AEFF0C4840F24911FE
:104F300007F0A2FFABE700BF54F40000D4E3000089
:104F400000ED00E06AF40000E4F20000CBF40000A1
:104F500058F300009DF40000B5F40000EAF40000EE
:104F600024F5000006EB00006EF500002DE9F0438B
:104F7000894BD3F8049091B00D46C9F30808002777
:104F800087F31188BFF36F8F02F07F43B3F17F4F38
:104F90000DD102F00C03082B1AD1804B80490097E9
:104FA000CDE9017301223B46384608F009F87D4AF5
:104FB0007D497E4840F2FB3307F065FF7C4807F0EF
:104FC00062FF784840F2FB3107F056FF002505E00C
:104FD00012075CBF05460127002DE8D00026A8F186
:104FE00003038DF81F60092B00F2BA80DFE803F09D
:104FF00005AEB28EB8B8B8B8B8B66E4BDFF89881C7
:1050000067490096CDE9016300230122184607F0A5
:10501000D7FFD8F82C408DF81F6014F002040BD095
:10502000654B5F490096CDE90163002301221846D4
:1050300007F0C6FF00240DE0D8F82C30002B2ADA48
:105040005E4B57490094CDE9014301222346204697
:1050500007F0B6FF9DF81F30D3B908AA05F1200666
:1050600028686968134603C30835B5421A46F7D164
:105070000F9B002F00F08A80C3F3080222B96FEA69
:1050800053236FEA43230F9308A92046FFF712FC2E
:1050900011B0BDE8F083D8F82C305B0049D5484BFF
:1050A0003F490094CDE9014301222346204607F001
:1050B00087FFAB6933F8022C4DF602739A420DD18B
:1050C0002B6803933F4B0094CDE9014320462346D0
:1050D0003349012207F074FF2C68BBE798F82830A9
:1050E0003BB10DF11F0201212846FFF779FE04466E
:1050F000B0E798F829302BB10DF11F010120FFF71F
:1051000065FDF4E7B8F82A309BB213B1FFF7ECFD68
:10511000EDE72D49234A254840F2CD2307F0B3FEA1
:105120002A4807F0B0FE40F2CD211E4807F0A4FE49
:1051300090E725491B4A1D4840F2D12307F0A3FE02
:10514000234807F0A0FE40F2D121EEE70DF11F0247
:105150000021C9E70DF11F010020D0E71D4B60E7DA
:105160001D4B1E4A0E4919F4F87F18BF1A46A8F1C4
:1051700010030024CDE90323194B0293CDE9004429
:1051800023460122204607F01BFF63E723F4FF7349
:1051900023F0010377E700BF00ED00E0BFF500005A
:1051A000D4E30000EAF40000EAF5000006EB00009A
:1051B000FDF500003BF6000052F6000073F600001B
:1051C00081F60000A0F60000BDF70000BCF600006C
:1051D000E0F6000010F70000A6F5000091F50000D1
:1051E00034F70000024A536943F0100353617047DB
:1051F00000ED00E0EFF30880EFF3098101B572469E
:10520000FFF7B4FE01BD00BF044800232021C218EF
:105210000133302B82F80013F9D1704700E100E030
:10522000002080F31488BFF36F8F08F06DFF00201B
:105230000D490860BFF34F8F0C4880F3088800F0D9
:105240002BF8202080F3118809484FF402614018A0
:1052500080F30988EFF314800221084380F3148857
:10526000BFF36F8FFFF7CCFB94ED00E0A0EB0020C5
:1052700020ED00200749D1F890200023C2F3072237
:105280001846934200D17047C1F89830C1F8A00089
:105290000133F6E700ED00E008B572B6002383F3B2
:1052A0001388FFF7E7FF144B4FF0FF32C3F880205D
:1052B000C3F88420C3F88820C3F88C20C3F890205A
:1052C000C3F89420C3F89820C3F89C20C3F8802129
:1052D000C3F88421C3F88821C3F88C21C3F8902136
:1052E000C3F89421C3F89821C3F89C2162B6BFF398
:1052F0004F8FBFF36F8F08BD00E100E0084B9B6844
:1053000083420BD1EFF3058343B1064B5A6842F059
:1053100080525A605A6A22F400425A6204F004BF72
:10532000C410002000ED00E0104A08B5D2F8FC30AF
:1053300043F08073C2F8FC300D4B00225A601A68AB
:1053400042F001021A601B689B010ED509490A4A06
:105350000A48692307F097FD094807F094FDBDE866
:1053600008400548692107F087BD08BD00ED00E051
:10537000001000E082F7000047F7000006EB000095
:10538000BFF70000034B00225A601A6842F0010286
:105390001A607047001000E0014B00215868704708
:1053A000001000E008B502F03DF80449044A08681E
:1053B00000230021FBF788FB08BD00BFFC00002094
:1053C00040420F00024B034A0348012100F084B819
:1053D000000004200000002070E60000426E054B33
:1053E000203A1A60044A2021C3E90112184601211B
:1053F00000F09AB8680F002000000B15F0B5274F99
:1054000085B000268E4215DA4468002C43D0D3B113
:1054100004F1FF3C14EA0C0F0FD0214B03960293CA
:1054200000230122CDE900331E49184607F0F1FDA3
:105430006FF01502104605B0F0BD1F2CEDD90568C0
:105440001CEA050FE9D1202C0568D0F808C0D2B2BB
:105450000FD9B4F1004F0ED8013CB4FA84F4C4F172
:105460001F046400072A4CEA040406D90E4B039279
:10547000D5E70824F6E73E24F4E725F01F05154399
:1054800045F0100544F00104C7F89820C7F89C5077
:105490000132C7F8A04001360C30B3E700ED00E060
:1054A00009F80000CCE300002CF80000044B0522B2
:1054B000C3F89420BFF34F8FBFF36F8F704700BFC7
:1054C00000ED00E0BFF35F8F024B0022C3F8942091
:1054D000704700BF00ED00E038B50E4D01232A787B
:1054E0000C46FFF78BFF2870163011D140F21113D4
:1054F000094A0A490A4807F0C6FC2146094807F04C
:10550000C2FCBDE83840044840F2111107F0B4BCB9
:1055100038BD00BFFCD2002052F80000BDF70000EB
:1055200006EB000089F8000010B5134A002312783A
:105530000C46FFF763FF10F1160F0AD00F4B002245
:10554000072800DD10BDC3F89800C3F8A020013083
:10555000F6E70B4A0B490C484FF4987307F093FC9D
:1055600021460A4807F08FFCBDE8104004484FF47C
:10557000987107F081BC00BFFCD2002000ED00E074
:1055800052F80000BDF7000006EB0000B5F800007F
:10559000274910B50C68082C13D94FF4A473254A79
:1055A0002549264807F06FFC25480822214607F0C8
:1055B0006AFC20484FF4A47107F05EFC4FF0FF3006
:1055C00010BDFFF77FFF48681E490022944200F19A
:1055D0000C001AD11C4B1C70FFF768FFD1F89030FB
:1055E000C3F30723082B0ED01849124A13484FF46F
:1055F000D47307F048FC164807F045FC0D484FF4FB
:10560000D47107F039FC0020DAE7C1F8982050F88F
:105610000C3C23F01F03134343F01003C1F89C30EC
:1056200050F8043C43F00103C1F8A0300132CDE74B
:105630007CE6000052F80000BDF7000006EB000019
:10564000E2F8000000ED00E0FCD2002016F90000B6
:1056500066F9000008B50B4BC3F1005303F5802336
:10566000B3F5006F0CD20849084A0948812307F0B6
:105670000AFC084807F007FC0448812107F0FCFBFE
:10568000002008BD40F60020B7F9000087F90000AF
:1056900006EB0000FEF90000014B1860704700BFE8
:1056A000C8000020F8B5084F06460D460024AC425D
:1056B00008DA3B6898470A28305504F1010401D004
:1056C0000D28F4D12046F8BDC4000020F8B50A4FDB
:1056D0000D46461EC0F10104A3199D4201DC284677
:1056E000F8BD73780A2B02D13B680D2098473B68C0
:1056F00016F8010F9847EFE7C800002008B50248E8
:105700000521FFF7E3FFFEE785FA000010B5074C1F
:105710002368C2180648C0F1005101F580218A4271
:105720003ABFC01822604FF0FF3010BD740F002048
:1057300040F6002010B5044658B912491248134AE1
:1057400040F2771307F09FFB104840F2771107F003
:1057500093FB142005F010FA206070B90C490B4A35
:10576000094840F27F1307F08EFB0A4807F08BFBD5
:10577000064840F27F1107F07FFB2068BDE810402B
:1057800008F019B98CFA000006EB000087F9000058
:105790008BFA0000C7FA000010B5044658B90A4950
:1057A0000A480B4A4FF4D27307F06DFB08484FF4D8
:1057B000D27107F061FB4FF0FF3220464FF0FF330C
:1057C000BDE8104003F08EB98CFA000006EB000033
:1057D00087F9000010B5044658B908490848094A35
:1057E0004FF4E07307F04FFB06484FF4E07107F009
:1057F00043FB2046BDE8104003F06EBA8CFA00006F
:1058000006EB000087F9000010B54FF02003EFF31E
:10581000118083F31288BFF36F8F114A0123C2F8FE
:1058200040354FF080424FF08051C2F87835D1F8C2
:105830003041082C08D1D1F83411052904D8094C7D
:10584000615C09B1C2F838364FF080430122C3F8D9
:10585000802580F31188BFF36F8F002010BD00BF3B
:1058600000E00140FDFA00004FF08043C0B2C3F8F1
:105870001C05BFF34F8F0549054BCA6802F4E0626F
:105880001343CB60BFF34F8F00BFFDE700ED00E097
:105890000400FA0520B1034B800143F001031847CF
:1058A000704700BF40E4000010B5044C23781BB9DA
:1058B000FFF73AFD0123237010BD00BFFDD2002089
:1058C000074BBFF35B8F53E8002F511C43E80010D8
:1058D0000028F8D1BFF35B8F0AB9FFF753BD7047BB
:1058E000780F00207FB50D7905F01F04072C1AD81A
:1058F0000A78092A1ED8DFE802F006060606061D09
:1059000005191D1B05224B78032B17D0042B4FF0D4
:10591000000325D0304A0292CDE900332F490122FD
:10592000184607F0B8FB6FF015004AE00622EAE7D8
:105930000722E8E72A4B02930023EDE70126488877
:1059400044F20A03984240D00CD844F20303984230
:1059500016D044F20503984235D0B0B3214BEAE7A4
:105960001E46ECE744F21403984230D044F2280378
:1059700098422ED044F20F039842EFD1032000E06A
:1059800000201202C5F3401342EA0353220102F140
:10599000804202F5E04243EA063343EA0043C2F89C
:1059A0001835230103F1804303F5E0438A79C3F8F6
:1059B00014250020C3F810050B4B1C444B7984F8C8
:1059C000903004B070BD0120DBE70220D9E704204D
:1059D000D7E70520D5E700BF22FB0000A4E30000C5
:1059E00003FB000046FB000000000020044B0122E6
:1059F000C3F8002508B1DA6070471A605A60704732
:105A000000700040F0B50D4687B070484FF0FF328F
:105A10004FF0FF3303F062FA6C6814B134F0FF0208
:105A20000AD06B4B02930023CDE900336949012270
:105A3000184607F030FB53E0674E684F114624FAD2
:105A400002F313F001032FD0BB1893F890302BB959
:105A50000392634A0292CDE900333CE006EB021E5A
:105A600095F811C0DEF81805BCF1000C18BF4FF016
:105A7000010C20F0807040EA0C60CEF8180502F1AD
:105A80005100000101313350C9B20132082AD6D188
:105A90002A7CA2F108000023062816D8DFE800F0CF
:105AA000281509152A15130002F151000001335081
:105AB000EBE70123484A0129C2F8F0356B7C1BD97A
:105AC000E3B1484BAEE70323F4E70392464A009361
:105AD000CDE9013200233F490122184607F0DBFAE5
